{
  "contractName": "TokenSales",
  "abi": [
    {
      "constant": true,
      "inputs": [],
      "name": "nftAddress",
      "outputs": [
        {
          "name": "",
          "type": "address"
        }
      ],
      "payable": false,
      "stateMutability": "view",
      "type": "function",
      "signature": "0x5bf8633a"
    },
    {
      "constant": true,
      "inputs": [
        {
          "name": "",
          "type": "uint256"
        }
      ],
      "name": "tokenPrice",
      "outputs": [
        {
          "name": "",
          "type": "uint256"
        }
      ],
      "payable": false,
      "stateMutability": "view",
      "type": "function",
      "signature": "0xd4ddce8a"
    },
    {
      "inputs": [
        {
          "name": "_tokenAddress",
          "type": "address"
        }
      ],
      "payable": false,
      "stateMutability": "nonpayable",
      "type": "constructor",
      "signature": "constructor"
    },
    {
      "constant": false,
      "inputs": [
        {
          "name": "_tokenId",
          "type": "uint256"
        },
        {
          "name": "_price",
          "type": "uint256"
        }
      ],
      "name": "setForSales",
      "outputs": [],
      "payable": false,
      "stateMutability": "nonpayable",
      "type": "function",
      "signature": "0x78f35233"
    },
    {
      "constant": false,
      "inputs": [
        {
          "name": "_tokenId",
          "type": "uint256"
        }
      ],
      "name": "perchaseToken",
      "outputs": [],
      "payable": true,
      "stateMutability": "payable",
      "type": "function",
      "signature": "0xf0ba25dc"
    },
    {
      "constant": false,
      "inputs": [
        {
          "name": "tokenIds",
          "type": "uint256[]"
        }
      ],
      "name": "removeTokenOnSale",
      "outputs": [],
      "payable": false,
      "stateMutability": "nonpayable",
      "type": "function",
      "signature": "0x50bc3605"
    }
  ],
  "bytecode": "0x608060405234801561001057600080fd5b50604051602080610cf48339810180604052602081101561003057600080fd5b8101908080519060200190929190505050806000806101000a81548173ffffffffffffffffffffffffffffffffffffffff021916908373ffffffffffffffffffffffffffffffffffffffff16021790555050610c63806100916000396000f3fe60806040526004361061006d576000357c0100000000000000000000000000000000000000000000000000000000900463ffffffff16806350bc3605146100725780635bf8633a1461013757806378f352331461018e578063d4ddce8a146101d3578063f0ba25dc14610222575b600080fd5b34801561007e57600080fd5b506101356004803603602081101561009557600080fd5b81019080803590602001906401000000008111156100b257600080fd5b8201836020820111156100c457600080fd5b803590602001918460208302840111640100000000831117156100e657600080fd5b919080806020026020016040519081016040528093929190818152602001838360200280828437600081840152601f19601f820116905080830192505050505050509192919290505050610250565b005b34801561014357600080fd5b5061014c610490565b604051808273ffffffffffffffffffffffffffffffffffffffff1673ffffffffffffffffffffffffffffffffffffffff16815260200191505060405180910390f35b34801561019a57600080fd5b506101d1600480360360408110156101b157600080fd5b8101908080359060200190929190803590602001909291905050506104b5565b005b3480156101df57600080fd5b5061020c600480360360208110156101f657600080fd5b810190808035906020019092919050505061087d565b6040518082815260200191505060405180910390f35b61024e6004803603602081101561023857600080fd5b8101908080359060200190929190505050610895565b005b600081511115156102c9576040517f08c379a000000000000000000000000000000000000000000000000000000000815260040180806020018281038252600e8152602001807f746f6b656e20697320656d70747900000000000000000000000000000000000081525060200191505060405180910390fd5b60008090505b815181101561048c57600082828151811015156102e857fe5b90602001906020020151905060008060009054906101000a900473ffffffffffffffffffffffffffffffffffffffff1673ffffffffffffffffffffffffffffffffffffffff16636352211e836040518263ffffffff167c01000000000000000000000000000000000000000000000000000000000281526004018082815260200191505060206040518083038186803b15801561038457600080fd5b505afa158015610398573d6000803e3d6000fd5b505050506040513d60208110156103ae57600080fd5b810190808051906020019092919050505090508073ffffffffffffffffffffffffffffffffffffffff163373ffffffffffffffffffffffffffffffffffffffff16141515610464576040517f08c379a000000000000000000000000000000000000000000000000000000000815260040180806020018281038252601a8152602001807f63616c6c6572206973206e6f7420746f6b656e2073656c6c657200000000000081525060200191505060405180910390fd5b60006001600084815260200190815260200160002081905550505080806001019150506102cf565b5050565b6000809054906101000a900473ffffffffffffffffffffffffffffffffffffffff1681565b60008060009054906101000a900473ffffffffffffffffffffffffffffffffffffffff1673ffffffffffffffffffffffffffffffffffffffff16636352211e846040518263ffffffff167c01000000000000000000000000000000000000000000000000000000000281526004018082815260200191505060206040518083038186803b15801561054557600080fd5b505afa158015610559573d6000803e3d6000fd5b505050506040513d602081101561056f57600080fd5b810190808051906020019092919050505090503373ffffffffffffffffffffffffffffffffffffffff168173ffffffffffffffffffffffffffffffffffffffff16141515610625576040517f08c379a00000000000000000000000000000000000000000000000000000000081526004018080602001828103825260198152602001807f63616c6c6572206973206e6f7420746f6b656e206f776e65720000000000000081525060200191505060405180910390fd5b60008211151561069d576040517f08c379a00000000000000000000000000000000000000000000000000000000081526004018080602001828103825260168152602001807f7072696365206973207a65726f206f72206c6f7765720000000000000000000081525060200191505060405180910390fd5b6000809054906101000a900473ffffffffffffffffffffffffffffffffffffffff1673ffffffffffffffffffffffffffffffffffffffff1663e985e9c582306040518363ffffffff167c0100000000000000000000000000000000000000000000000000000000028152600401808373ffffffffffffffffffffffffffffffffffffffff1673ffffffffffffffffffffffffffffffffffffffff1681526020018273ffffffffffffffffffffffffffffffffffffffff1673ffffffffffffffffffffffffffffffffffffffff1681526020019250505060206040518083038186803b15801561078b57600080fd5b505afa15801561079f573d6000803e3d6000fd5b505050506040513d60208110156107b557600080fd5b81019080805190602001909291905050501515610860576040517f08c379a000000000000000000000000000000000000000000000000000000000815260040180806020018281038252602f8152602001807f746f6b656e206f776e657220646964206e6f7420617070726f766520546f6b6581526020017f6e53616c657320636f6e7472616374000000000000000000000000000000000081525060400191505060405180910390fd5b816001600085815260200190815260200160002081905550505050565b60016020528060005260406000206000915090505481565b60006001600083815260200190815260200160002054905060008060009054906101000a900473ffffffffffffffffffffffffffffffffffffffff1673ffffffffffffffffffffffffffffffffffffffff16636352211e846040518263ffffffff167c01000000000000000000000000000000000000000000000000000000000281526004018082815260200191505060206040518083038186803b15801561093d57600080fd5b505afa158015610951573d6000803e3d6000fd5b505050506040513d602081101561096757600080fd5b81019080805190602001909291905050509050813410151515610a18576040517f08c379a00000000000000000000000000000000000000000000000000000000081526004018080602001828103825260218152602001807f63616c6c65722073656e74206b6c6179206c6f776572207468616e207072696381526020017f650000000000000000000000000000000000000000000000000000000000000081525060400191505060405180910390fd5b8073ffffffffffffffffffffffffffffffffffffffff163373ffffffffffffffffffffffffffffffffffffffff1614151515610abc576040517f08c379a00000000000000000000000000000000000000000000000000000000081526004018080602001828103825260168152602001807f63616c6c657220697320746f6b656e2073656c6c65720000000000000000000081525060200191505060405180910390fd5b60008190508073ffffffffffffffffffffffffffffffffffffffff166108fc349081150290604051600060405180830381858888f19350505050158015610b07573d6000803e3d6000fd5b506000809054906101000a900473ffffffffffffffffffffffffffffffffffffffff1673ffffffffffffffffffffffffffffffffffffffff166342842e0e8333876040518463ffffffff167c0100000000000000000000000000000000000000000000000000000000028152600401808473ffffffffffffffffffffffffffffffffffffffff1673ffffffffffffffffffffffffffffffffffffffff1681526020018373ffffffffffffffffffffffffffffffffffffffff1673ffffffffffffffffffffffffffffffffffffffff1681526020018281526020019350505050600060405180830381600087803b158015610c0057600080fd5b505af1158015610c14573d6000803e3d6000fd5b50505050600060016000868152602001908152602001600020819055505050505056fea165627a7a72305820ded3a29fd740e969bcab39f6d9307679d8f8a48b48de9677b7b937ba2f8f170c0029",
  "source": "pragma solidity ^0.5.0;\r\n\r\nimport \"openzeppelin-solidity/contracts/token/ERC721/ERC721Full.sol\";\r\n\r\ncontract TokenSales {\r\n  ERC721 public nftAddress;\r\n  mapping(uint256 => uint256) public tokenPrice;\r\n\r\n  constructor(address _tokenAddress) public {\r\n     nftAddress = ERC721Full(_tokenAddress); \r\n  }\r\n\r\n  function setForSales(uint256 _tokenId, uint256 _price) public\r\n  {\r\n      address tokenOwner = nftAddress.ownerOf(_tokenId);\r\n      require(tokenOwner == msg.sender, \"caller is not token owner\");\r\n      require(_price > 0, \"price is zero or lower\");\r\n      require(nftAddress.isApprovedForAll(tokenOwner, address(this)), \"token owner did not approve TokenSales contract\");\r\n      tokenPrice[_tokenId] = _price;\r\n  }\r\n\r\n  function perchaseToken(uint256 _tokenId) public payable {\r\n      uint256 price = tokenPrice[_tokenId];\r\n      address tokenSeller = nftAddress.ownerOf(_tokenId);  \r\n      require(msg.value >= price, \"caller sent klay lower than price\");\r\n      require(msg.sender != tokenSeller, \"caller is token seller\");\r\n      address payable payableTokenSeller = address(uint160(tokenSeller));\r\n      payableTokenSeller.transfer(msg.value);\r\n      nftAddress.safeTransferFrom(tokenSeller, msg.sender, _tokenId);\r\n      tokenPrice[_tokenId] = 0;\r\n  }\r\n\r\n  function removeTokenOnSale(uint256[] memory tokenIds) public{\r\n      require(tokenIds.length > 0, \"token is empty\");  \r\n\r\n      for (uint256 i = 0; i < tokenIds.length; i++) {\r\n          uint256 tokenId = tokenIds[i];\r\n          address tokenSeller = nftAddress.ownerOf(tokenId);\r\n          require(msg.sender == tokenSeller, \"caller is not token seller\");\r\n          tokenPrice[tokenId] = 0;\r\n      } \r\n  }\r\n}",
  "sourcePath": "D:/Work_code/kalytn/nft_mcdt/contracts/TokenSales.sol",
  "compiler": {
    "name": "solc",
    "version": "0.5.0+commit.1d4f565a.Emscripten.clang"
  },
  "schemaVersion": "3.0.0",
  "updatedAt": "2022-02-21T02:54:11.666Z",
  "devdoc": {
    "methods": {}
  },
  "userdoc": {
    "methods": {}
  }
}